{
  "_format": "hh-sol-artifact-1",
  "contractName": "WavePortal",
  "sourceName": "contracts/WavePortal.sol",
  "abi": [
    {
      "inputs": [],
      "stateMutability": "payable",
      "type": "constructor"
    },
    {
      "anonymous": false,
      "inputs": [
        {
          "indexed": true,
          "internalType": "address",
          "name": "from",
          "type": "address"
        },
        {
          "indexed": false,
          "internalType": "uint256",
          "name": "timestamp",
          "type": "uint256"
        },
        {
          "indexed": false,
          "internalType": "string",
          "name": "message",
          "type": "string"
        }
      ],
      "name": "NewWave",
      "type": "event"
    },
    {
      "inputs": [],
      "name": "getAllWaves",
      "outputs": [
        {
          "components": [
            {
              "internalType": "address",
              "name": "waver",
              "type": "address"
            },
            {
              "internalType": "string",
              "name": "message",
              "type": "string"
            },
            {
              "internalType": "uint256",
              "name": "timestamp",
              "type": "uint256"
            }
          ],
          "internalType": "struct WavePortal.Wave[]",
          "name": "",
          "type": "tuple[]"
        }
      ],
      "stateMutability": "view",
      "type": "function"
    },
    {
      "inputs": [],
      "name": "getMaxWaves",
      "outputs": [
        {
          "internalType": "address",
          "name": "",
          "type": "address"
        },
        {
          "internalType": "uint256",
          "name": "",
          "type": "uint256"
        }
      ],
      "stateMutability": "view",
      "type": "function"
    },
    {
      "inputs": [],
      "name": "getTotalWaves",
      "outputs": [
        {
          "internalType": "uint256",
          "name": "",
          "type": "uint256"
        }
      ],
      "stateMutability": "view",
      "type": "function"
    },
    {
      "inputs": [
        {
          "internalType": "address",
          "name": "",
          "type": "address"
        }
      ],
      "name": "walletWaves",
      "outputs": [
        {
          "internalType": "uint256",
          "name": "",
          "type": "uint256"
        }
      ],
      "stateMutability": "view",
      "type": "function"
    },
    {
      "inputs": [
        {
          "internalType": "string",
          "name": "_message",
          "type": "string"
        }
      ],
      "name": "wave",
      "outputs": [],
      "stateMutability": "nonpayable",
      "type": "function"
    }
  ],
  "bytecode": "0x60806040526200003360405180606001604052806025815260200162001614602591396200003960201b620008851760201c565b620001cd565b620000d98160405160240162000050919062000146565b6040516020818303038152906040527f41304fac000000000000000000000000000000000000000000000000000000007bffffffffffffffffffffffffffffffffffffffffffffffffffffffff19166020820180517bffffffffffffffffffffffffffffffffffffffffffffffffffffffff8381831617835250505050620000dc60201b60201c565b50565b60008151905060006a636f6e736f6c652e6c6f679050602083016000808483855afa5050505050565b600062000112826200016a565b6200011e818562000175565b93506200013081856020860162000186565b6200013b81620001bc565b840191505092915050565b6000602082019050818103600083015262000162818462000105565b905092915050565b600081519050919050565b600082825260208201905092915050565b60005b83811015620001a657808201518184015260208101905062000189565b83811115620001b6576000848401525b50505050565b6000601f19601f8301169050919050565b61143780620001dd6000396000f3fe608060405234801561001057600080fd5b50600436106100575760003560e01c80632cda09091461005c578063449d46c01461007b57806344dd622b146100975780639a2cdc08146100c7578063bd43a908146100e5575b600080fd5b610064610103565b604051610072929190610ead565b60405180910390f35b61009560048036038101906100909190610c67565b610360565b005b6100b160048036038101906100ac9190610c3e565b61068d565b6040516100be9190610ff8565b60405180910390f35b6100cf6106a5565b6040516100dc9190610ff8565b60405180910390f35b6100ed610734565b6040516100fa9190610ed6565b60405180910390f35b60008060006001600081548110610143577f4e487b7100000000000000000000000000000000000000000000000000000000600052603260045260246000fd5b9060005260206000200160009054906101000a900473ffffffffffffffffffffffffffffffffffffffff1690506000600260008373ffffffffffffffffffffffffffffffffffffffff1673ffffffffffffffffffffffffffffffffffffffff1681526020019081526020016000205490506000600190505b60018054905081101561033057816002600060018481548110610207577f4e487b7100000000000000000000000000000000000000000000000000000000600052603260045260246000fd5b9060005260206000200160009054906101000a900473ffffffffffffffffffffffffffffffffffffffff1673ffffffffffffffffffffffffffffffffffffffff1673ffffffffffffffffffffffffffffffffffffffff16815260200190815260200160002054111561031d57600181815481106102ad577f4e487b7100000000000000000000000000000000000000000000000000000000600052603260045260246000fd5b9060005260206000200160009054906101000a900473ffffffffffffffffffffffffffffffffffffffff169250600260008473ffffffffffffffffffffffffffffffffffffffff1673ffffffffffffffffffffffffffffffffffffffff1681526020019081526020016000205491505b808061032890611241565b9150506101bb565b506103546040518060600160405280602181526020016113e160219139838361091e565b81819350935050509091565b6001600260003373ffffffffffffffffffffffffffffffffffffffff1673ffffffffffffffffffffffffffffffffffffffff16815260200190815260200160002060008282546103b0919061110a565b925050819055506001339080600181540180825580915050600190039060005260206000200160009091909190916101000a81548173ffffffffffffffffffffffffffffffffffffffff021916908373ffffffffffffffffffffffffffffffffffffffff160217905550600160008082825461042c919061110a565b925050819055506104726040518060400160405280600d81526020017f2573206861732077617665642100000000000000000000000000000000000000815250336109bd565b600360405180606001604052803373ffffffffffffffffffffffffffffffffffffffff16815260200183815260200142815250908060018154018082558091505060019003906000526020600020906003020160009091909190915060008201518160000160006101000a81548173ffffffffffffffffffffffffffffffffffffffff021916908373ffffffffffffffffffffffffffffffffffffffff1602179055506020820151816001019080519060200190610531929190610b1e565b506040820151816002015550503373ffffffffffffffffffffffffffffffffffffffff167f5f7e16dc676677766a70e9c5628aa6c54ddb8b6e5188e2ae1e1f17f1ffbea7164283604051610586929190611013565b60405180910390a26000655af3107a40009050478111156105dc576040517f08c379a00000000000000000000000000000000000000000000000000000000081526004016105d390610fd8565b60405180910390fd5b60003373ffffffffffffffffffffffffffffffffffffffff168260405161060290610e98565b60006040518083038185875af1925050503d806000811461063f576040519150601f19603f3d011682016040523d82523d6000602084013e610644565b606091505b5050905080610688576040517f08c379a000000000000000000000000000000000000000000000000000000000815260040161067f90610fb8565b60405180910390fd5b505050565b60026020528060005260406000206000915090505481565b60006106e86040518060400160405280600f81526020017f546f74616c2077617665733a2025730000000000000000000000000000000000815250600054610a59565b61072c6040518060400160405280601181526020017f546f74616c2077616c6c6574733a202573000000000000000000000000000000815250600180549050610a59565b600054905090565b60606003805480602002602001604051908101604052809291908181526020016000905b8282101561087c57838290600052602060002090600302016040518060600160405290816000820160009054906101000a900473ffffffffffffffffffffffffffffffffffffffff1673ffffffffffffffffffffffffffffffffffffffff1673ffffffffffffffffffffffffffffffffffffffff1681526020016001820180546107e1906111de565b80601f016020809104026020016040519081016040528092919081815260200182805461080d906111de565b801561085a5780601f1061082f5761010080835404028352916020019161085a565b820191906000526020600020905b81548152906001019060200180831161083d57829003601f168201915b5050505050815260200160028201548152505081526020019060010190610758565b50505050905090565b61091b816040516024016108999190610ef8565b6040516020818303038152906040527f41304fac000000000000000000000000000000000000000000000000000000007bffffffffffffffffffffffffffffffffffffffffffffffffffffffff19166020820180517bffffffffffffffffffffffffffffffffffffffffffffffffffffffff8381831617835250505050610af5565b50565b6109b883838360405160240161093693929190610f4a565b6040516020818303038152906040527f07c81217000000000000000000000000000000000000000000000000000000007bffffffffffffffffffffffffffffffffffffffffffffffffffffffff19166020820180517bffffffffffffffffffffffffffffffffffffffffffffffffffffffff8381831617835250505050610af5565b505050565b610a5582826040516024016109d3929190610f1a565b6040516020818303038152906040527f319af333000000000000000000000000000000000000000000000000000000007bffffffffffffffffffffffffffffffffffffffffffffffffffffffff19166020820180517bffffffffffffffffffffffffffffffffffffffffffffffffffffffff8381831617835250505050610af5565b5050565b610af18282604051602401610a6f929190610f88565b6040516020818303038152906040527f9710a9d0000000000000000000000000000000000000000000000000000000007bffffffffffffffffffffffffffffffffffffffffffffffffffffffff19166020820180517bffffffffffffffffffffffffffffffffffffffffffffffffffffffff8381831617835250505050610af5565b5050565b60008151905060006a636f6e736f6c652e6c6f679050602083016000808483855afa5050505050565b828054610b2a906111de565b90600052602060002090601f016020900481019282610b4c5760008555610b93565b82601f10610b6557805160ff1916838001178555610b93565b82800160010185558215610b93579182015b82811115610b92578251825591602001919060010190610b77565b5b509050610ba09190610ba4565b5090565b5b80821115610bbd576000816000905550600101610ba5565b5090565b6000610bd4610bcf84611068565b611043565b905082815260208101848484011115610bec57600080fd5b610bf784828561119c565b509392505050565b600081359050610c0e816113c9565b92915050565b600082601f830112610c2557600080fd5b8135610c35848260208601610bc1565b91505092915050565b600060208284031215610c5057600080fd5b6000610c5e84828501610bff565b91505092915050565b600060208284031215610c7957600080fd5b600082013567ffffffffffffffff811115610c9357600080fd5b610c9f84828501610c14565b91505092915050565b6000610cb48383610e2a565b905092915050565b610cc581611160565b82525050565b610cd481611160565b82525050565b6000610ce5826110a9565b610cef81856110cc565b935083602082028501610d0185611099565b8060005b85811015610d3d5784840389528151610d1e8582610ca8565b9450610d29836110bf565b925060208a01995050600181019050610d05565b50829750879550505050505092915050565b6000610d5a826110b4565b610d6481856110e8565b9350610d748185602086016111ab565b610d7d81611317565b840191505092915050565b6000610d93826110b4565b610d9d81856110f9565b9350610dad8185602086016111ab565b610db681611317565b840191505092915050565b6000610dce6027836110f9565b9150610dd982611328565b604082019050919050565b6000610df16025836110f9565b9150610dfc82611377565b604082019050919050565b6000610e146000836110dd565b9150610e1f826113c6565b600082019050919050565b6000606083016000830151610e426000860182610cbc565b5060208301518482036020860152610e5a8282610d4f565b9150506040830151610e6f6040860182610e7a565b508091505092915050565b610e8381611192565b82525050565b610e9281611192565b82525050565b6000610ea382610e07565b9150819050919050565b6000604082019050610ec26000830185610ccb565b610ecf6020830184610e89565b9392505050565b60006020820190508181036000830152610ef08184610cda565b905092915050565b60006020820190508181036000830152610f128184610d88565b905092915050565b60006040820190508181036000830152610f348185610d88565b9050610f436020830184610ccb565b9392505050565b60006060820190508181036000830152610f648186610d88565b9050610f736020830185610ccb565b610f806040830184610e89565b949350505050565b60006040820190508181036000830152610fa28185610d88565b9050610fb16020830184610e89565b9392505050565b60006020820190508181036000830152610fd181610dc1565b9050919050565b60006020820190508181036000830152610ff181610de4565b9050919050565b600060208201905061100d6000830184610e89565b92915050565b60006040820190506110286000830185610e89565b818103602083015261103a8184610d88565b90509392505050565b600061104d61105e565b90506110598282611210565b919050565b6000604051905090565b600067ffffffffffffffff821115611083576110826112e8565b5b61108c82611317565b9050602081019050919050565b6000819050602082019050919050565b600081519050919050565b600081519050919050565b6000602082019050919050565b600082825260208201905092915050565b600081905092915050565b600082825260208201905092915050565b600082825260208201905092915050565b600061111582611192565b915061112083611192565b9250827fffffffffffffffffffffffffffffffffffffffffffffffffffffffffffffffff038211156111555761115461128a565b5b828201905092915050565b600061116b82611172565b9050919050565b600073ffffffffffffffffffffffffffffffffffffffff82169050919050565b6000819050919050565b82818337600083830152505050565b60005b838110156111c95780820151818401526020810190506111ae565b838111156111d8576000848401525b50505050565b600060028204905060018216806111f657607f821691505b6020821081141561120a576112096112b9565b5b50919050565b61121982611317565b810181811067ffffffffffffffff82111715611238576112376112e8565b5b80604052505050565b600061124c82611192565b91507fffffffffffffffffffffffffffffffffffffffffffffffffffffffffffffffff82141561127f5761127e61128a565b5b600182019050919050565b7f4e487b7100000000000000000000000000000000000000000000000000000000600052601160045260246000fd5b7f4e487b7100000000000000000000000000000000000000000000000000000000600052602260045260246000fd5b7f4e487b7100000000000000000000000000000000000000000000000000000000600052604160045260246000fd5b6000601f19601f8301169050919050565b7f4661696c656420746f207769746864726177206d6f6e65792066726f6d20636f60008201527f6e74726163742e00000000000000000000000000000000000000000000000000602082015250565b7f547279696e6720746f207769746864726177206d6f7265207468616e20796f7560008201527f2068617665000000000000000000000000000000000000000000000000000000602082015250565b50565b6113d281611160565b81146113dd57600080fd5b5056fe25732068617320776176656420746865206d6f737421202825732074696d657329a2646970667358221220bbb05d4f156ff7461856f035d93ba02a52d6469304b7a55313f904ea3792e8e064736f6c63430008040033596f20796f2c204920616d206120636f6e747261637420616e64204920616d20736d617274",
  "linkReferences": {},
  "deployedLinkReferences": {}
}